{
  "contractName": "DadBucks",
  "abi": [
    {
      "inputs": [
        {
          "internalType": "uint256",
          "name": "_initialSupply",
          "type": "uint256"
        }
      ],
      "stateMutability": "nonpayable",
      "type": "constructor"
    },
    {
      "inputs": [
        {
          "internalType": "address",
          "name": "",
          "type": "address"
        }
      ],
      "name": "balanceOf",
      "outputs": [
        {
          "internalType": "uint256",
          "name": "",
          "type": "uint256"
        }
      ],
      "stateMutability": "view",
      "type": "function"
    },
    {
      "inputs": [],
      "name": "name",
      "outputs": [
        {
          "internalType": "string",
          "name": "",
          "type": "string"
        }
      ],
      "stateMutability": "view",
      "type": "function"
    },
    {
      "inputs": [],
      "name": "standard",
      "outputs": [
        {
          "internalType": "string",
          "name": "",
          "type": "string"
        }
      ],
      "stateMutability": "view",
      "type": "function"
    },
    {
      "inputs": [],
      "name": "symbol",
      "outputs": [
        {
          "internalType": "string",
          "name": "",
          "type": "string"
        }
      ],
      "stateMutability": "view",
      "type": "function"
    },
    {
      "inputs": [],
      "name": "totalSupply",
      "outputs": [
        {
          "internalType": "uint256",
          "name": "",
          "type": "uint256"
        }
      ],
      "stateMutability": "view",
      "type": "function"
    }
  ],
  "bytecode": "0x60806040526040518060400160405280600881526020017f4461644275636b730000000000000000000000000000000000000000000000008152506000908051906020019061004f929190610167565b506040518060400160405280600381526020017f44425800000000000000000000000000000000000000000000000000000000008152506001908051906020019061009b929190610167565b506040518060400160405280600e81526020017f446164204275636b732076312e30000000000000000000000000000000000000815250600290805190602001906100e7929190610167565b503480156100f457600080fd5b506040516107b23803806107b28339818101604052810190610116919061021f565b80600460003373ffffffffffffffffffffffffffffffffffffffff1673ffffffffffffffffffffffffffffffffffffffff1681526020019081526020016000208190555080600381905550506102ca565b82805461017390610252565b90600052602060002090601f01602090048101928261019557600085556101dc565b82601f106101ae57805160ff19168380011785556101dc565b828001600101855582156101dc579182015b828111156101db5782518255916020019190600101906101c0565b5b5090506101e991906101ed565b5090565b5b808211156102065760008160009055506001016101ee565b5090565b600081519050610219816102b3565b92915050565b60006020828403121561023157600080fd5b600061023f8482850161020a565b91505092915050565b6000819050919050565b6000600282049050600182168061026a57607f821691505b6020821081141561027e5761027d610284565b5b50919050565b7f4e487b7100000000000000000000000000000000000000000000000000000000600052602260045260246000fd5b6102bc81610248565b81146102c757600080fd5b50565b6104d9806102d96000396000f3fe608060405234801561001057600080fd5b50600436106100575760003560e01c806306fdde031461005c57806318160ddd1461007a5780635a3b7e421461009857806370a08231146100b657806395d89b41146100e6575b600080fd5b610064610104565b6040516100719190610352565b60405180910390f35b610082610192565b60405161008f9190610374565b60405180910390f35b6100a0610198565b6040516100ad9190610352565b60405180910390f35b6100d060048036038101906100cb91906102e1565b610226565b6040516100dd9190610374565b60405180910390f35b6100ee61023e565b6040516100fb9190610352565b60405180910390f35b600080546101119061041a565b80601f016020809104026020016040519081016040528092919081815260200182805461013d9061041a565b801561018a5780601f1061015f5761010080835404028352916020019161018a565b820191906000526020600020905b81548152906001019060200180831161016d57829003601f168201915b505050505081565b60035481565b600280546101a59061041a565b80601f01602080910402602001604051908101604052809291908181526020018280546101d19061041a565b801561021e5780601f106101f35761010080835404028352916020019161021e565b820191906000526020600020905b81548152906001019060200180831161020157829003601f168201915b505050505081565b60046020528060005260406000206000915090505481565b6001805461024b9061041a565b80601f01602080910402602001604051908101604052809291908181526020018280546102779061041a565b80156102c45780601f10610299576101008083540402835291602001916102c4565b820191906000526020600020905b8154815290600101906020018083116102a757829003601f168201915b505050505081565b6000813590506102db8161048c565b92915050565b6000602082840312156102f357600080fd5b6000610301848285016102cc565b91505092915050565b60006103158261038f565b61031f818561039a565b935061032f8185602086016103e7565b6103388161047b565b840191505092915050565b61034c816103dd565b82525050565b6000602082019050818103600083015261036c818461030a565b905092915050565b60006020820190506103896000830184610343565b92915050565b600081519050919050565b600082825260208201905092915050565b60006103b6826103bd565b9050919050565b600073ffffffffffffffffffffffffffffffffffffffff82169050919050565b6000819050919050565b60005b838110156104055780820151818401526020810190506103ea565b83811115610414576000848401525b50505050565b6000600282049050600182168061043257607f821691505b602082108114156104465761044561044c565b5b50919050565b7f4e487b7100000000000000000000000000000000000000000000000000000000600052602260045260246000fd5b6000601f19601f8301169050919050565b610495816103ab565b81146104a057600080fd5b5056fea2646970667358221220342e38ca400d879240c596803236cff45085368ec115ff11fcc741ac5d637eab64736f6c63430008030033",
  "immutableReferences": {},
  "source": "// SPDX-License-Identifier: MIT\r\npragma solidity ^0.8.3;\r\n\r\ncontract DadBucks {\r\n    string  public name = \"DadBucks\";\r\n    string  public symbol = \"DBX\";\r\n    string  public standard = \"Dad Bucks v1.0\";\r\n    uint256 public totalSupply;\r\n    \r\n    mapping(address => uint256) public balanceOf;\r\n\r\n    constructor(uint256 _initialSupply) {\r\n        balanceOf[msg.sender] = _initialSupply;\r\n        totalSupply = _initialSupply;\r\n    }\r\n}\r\n",
  "sourcePath": "C:/Users/melvi/OneDrive/Documents/Dev/Choreware/DadBucks_DBX/contracts/DadBucks.sol",
  "compiler": {
    "name": "solc",
    "version": "0.8.3+commit.8d00100c.Emscripten.clang"
  },
  "schemaVersion": "3.3.4",
  "updatedAt": "2021-03-30T09:29:48.615Z",
  "devdoc": {
    "kind": "dev",
    "methods": {},
    "version": 1
  },
  "userdoc": {
    "kind": "user",
    "methods": {},
    "version": 1
  }
}