{
  "contractName": "DadBucks",
  "abi": [
    {
      "inputs": [],
      "stateMutability": "nonpayable",
      "type": "constructor"
    },
    {
      "inputs": [],
      "name": "name",
      "outputs": [
        {
          "internalType": "string",
          "name": "",
          "type": "string"
        }
      ],
      "stateMutability": "view",
      "type": "function",
      "constant": true
    },
    {
      "inputs": [],
      "name": "standard",
      "outputs": [
        {
          "internalType": "string",
          "name": "",
          "type": "string"
        }
      ],
      "stateMutability": "view",
      "type": "function",
      "constant": true
    },
    {
      "inputs": [],
      "name": "symbol",
      "outputs": [
        {
          "internalType": "string",
          "name": "",
          "type": "string"
        }
      ],
      "stateMutability": "view",
      "type": "function",
      "constant": true
    },
    {
      "inputs": [],
      "name": "totalSupply",
      "outputs": [
        {
          "internalType": "uint256",
          "name": "",
          "type": "uint256"
        }
      ],
      "stateMutability": "view",
      "type": "function",
      "constant": true
    }
  ],
  "bytecode": "0x60806040526040518060400160405280600881526020017f4461644275636b730000000000000000000000000000000000000000000000008152506000908051906020019061004f929190610104565b506040518060400160405280600381526020017f44425800000000000000000000000000000000000000000000000000000000008152506001908051906020019061009b929190610104565b506040518060400160405280600e81526020017f446164204275636b732076312e30000000000000000000000000000000000000815250600290805190602001906100e7929190610104565b503480156100f457600080fd5b50620f4240600381905550610208565b828054610110906101a7565b90600052602060002090601f0160209004810192826101325760008555610179565b82601f1061014b57805160ff1916838001178555610179565b82800160010185558215610179579182015b8281111561017857825182559160200191906001019061015d565b5b509050610186919061018a565b5090565b5b808211156101a357600081600090555060010161018b565b5090565b600060028204905060018216806101bf57607f821691505b602082108114156101d3576101d26101d9565b5b50919050565b7f4e487b7100000000000000000000000000000000000000000000000000000000600052602260045260246000fd5b6103ff806102176000396000f3fe608060405234801561001057600080fd5b506004361061004c5760003560e01c806306fdde031461005157806318160ddd1461006f5780635a3b7e421461008d57806395d89b41146100ab575b600080fd5b6100596100c9565b60405161006691906102c1565b60405180910390f35b610077610157565b60405161008491906102e3565b60405180910390f35b61009561015d565b6040516100a291906102c1565b60405180910390f35b6100b36101eb565b6040516100c091906102c1565b60405180910390f35b600080546100d690610357565b80601f016020809104026020016040519081016040528092919081815260200182805461010290610357565b801561014f5780601f106101245761010080835404028352916020019161014f565b820191906000526020600020905b81548152906001019060200180831161013257829003601f168201915b505050505081565b60035481565b6002805461016a90610357565b80601f016020809104026020016040519081016040528092919081815260200182805461019690610357565b80156101e35780601f106101b8576101008083540402835291602001916101e3565b820191906000526020600020905b8154815290600101906020018083116101c657829003601f168201915b505050505081565b600180546101f890610357565b80601f016020809104026020016040519081016040528092919081815260200182805461022490610357565b80156102715780601f1061024657610100808354040283529160200191610271565b820191906000526020600020905b81548152906001019060200180831161025457829003601f168201915b505050505081565b6000610284826102fe565b61028e8185610309565b935061029e818560208601610324565b6102a7816103b8565b840191505092915050565b6102bb8161031a565b82525050565b600060208201905081810360008301526102db8184610279565b905092915050565b60006020820190506102f860008301846102b2565b92915050565b600081519050919050565b600082825260208201905092915050565b6000819050919050565b60005b83811015610342578082015181840152602081019050610327565b83811115610351576000848401525b50505050565b6000600282049050600182168061036f57607f821691505b6020821081141561038357610382610389565b5b50919050565b7f4e487b7100000000000000000000000000000000000000000000000000000000600052602260045260246000fd5b6000601f19601f830116905091905056fea26469706673582212204cd9faeeaa825bfac82ce52c27b2a39468919da02951ee5f1db0269b3f338b0864736f6c63430008030033",
  "immutableReferences": {},
  "source": "// SPDX-License-Identifier: MIT\r\npragma solidity ^0.8.3;\r\n\r\ncontract DadBucks {\r\n    string  public name = \"DadBucks\";\r\n    string  public symbol = \"DBX\";\r\n    string  public standard = \"Dad Bucks v1.0\";\r\n    uint256 public totalSupply;\r\n\r\n    constructor() public {\r\n        totalSupply = 1000000;\r\n    }\r\n}\r\n",
  "sourcePath": "C:/Users/melvi/OneDrive/Documents/Dev/Choreware/DadBucks_DBX/contracts/DadBucks.sol",
  "compiler": {
    "name": "solc",
    "version": "0.8.3+commit.8d00100c.Emscripten.clang"
  },
  "schemaVersion": "3.3.4",
  "updatedAt": "2021-03-30T07:09:49.206Z",
  "networkType": "ethereum",
  "devdoc": {
    "kind": "dev",
    "methods": {},
    "version": 1
  },
  "userdoc": {
    "kind": "user",
    "methods": {},
    "version": 1
  }
}